:020000040800F2
:10000000F8060020A10100085B290008E924000887
:1000100059290008E1020008953500080000000099
:10002000000000000000000000000000D92B0008C4
:10003000E3020008000000005D290008072C00080A
:10004000BB010008BB010008BB010008BB010008A0
:10005000BB010008BB010008BB010008BB01000890
:10006000BB010008BB010008BB010008BB01000880
:10007000BB010008BB010008BB010008BB01000870
:10008000BB010008BB010008BB010008BB01000860
:10009000BB010008BB010008BB010008BB01000850
:1000A000BB010008BB010008BB010008BB01000840
:1000B000BB0100080000000000000000BB010008B8
:1000C000BB0100080000000000000000BB010008A8
:1000D00000000000BB0100086D35000800000000B2
:1000E000BB010008452B00080000000000000000D4
:1000F0000000000000000000000000000000000000
:10010000000000000000000000000000BB0100082B
:100110000000000000000000BB010008BB01000857
:10012000BB010008BB010008BB010008BB010008BF
:10013000BB010008000000000000000000000000FB
:10014000BB010008BB010008BB010008BB0100089F
:10015000BB010008BB010008BB010008BB0100088F
:10016000BB010008BB010008BB0100080000000043
:10017000BB010008BB0100080000000000000000F7
:10018000BB010008BB010008BB010008DFF80CD070
:1001900000F094F8004800476D370008F80600208A
:1001A0000648804706480047FEE7FEE7FEE7FEE711
:1001B000FEE7FEE7FEE7FEE7FEE7FEE7C52C0008E8
:1001C0008D0100082DE9F05F0546002092469B4610
:1001D00088460646814640241BE02846414647465D
:1001E000224600F05AF853465A46C01A914110D39D
:1001F00011461846224600F041F82D1A67EB010817
:100200004F4622460120002100F038F817EB000984
:100210004E41201EA4F10104DFDC484631462A4647
:10022000434600F000B830BCBDE8C09F0649074A0D
:100230000868504343F23902104408604008704790
:1002400001490860704700003C0000206D4EC64127
:1002500030B50B46014600202022012409E021FA96
:1002600002F59D4205D303FA02F5491B04FA02F593
:100270002844151EA2F10102F1DC30BD202A04DB66
:10028000203A00FA02F1002070479140C2F12003A9
:1002900020FA03F3194390407047202A04DB203AE8
:1002A00021FA02F00021704721FA02F3D040C2F196
:1002B000200291400843194670470000064C074D44
:1002C00006E0E06840F0010394E807009847103426
:1002D000AC42F6D3FFF75EFF483F0008683F0008D6
:1002E000FEE77047074908B50968074AB1FBF2F114
:1002F000064A4143506853681B1A00938B42FAD355
:1003000008BD00003800002040420F00001000E04F
:100310001CB50749012301AA097908438DF8040097
:100320000A2000904E21034800F0F0F91CBD0000A7
:10033000000000204000002010B5002490F8251097
:10034000022903D00421C16301241AE001680A686C
:1003500022F00E020A6001680A6822F001020A60B7
:1003600090F84410036C01F01C02012101FA02F222
:100370005A6080F82510002180F82410816B01B1AB
:100380008847204610BD70B5044600F001F90546C7
:10039000B4F1FF3F00D0641C00F0FAF8401BA0420B
:1003A000FAD370BD2DE9F84F00220B68002B7DD0E9
:1003B000DFF8B4810F2708F1040909F1040A0AF1F2
:1003C000040E0123D1F800C003FA02F50CEA05037C
:1003D000002B6CD0D1F804C0BCF1020F02D0BCF1EC
:1003E000120F12D14FEAD20C00EB8C0CDCF820601B
:1003F0005407E40E07FA04FB26EA0B06D1F810B006
:100400000BFA04F43443CCF8204006684FEA420C5F
:10041000032404FA0CF4A64391F804B00BF0030B88
:100420000BFA0CFB4BEA060606604E68012E05D05F
:10043000022E03D0112E01D0122E11D18668A643B0
:10044000D1F80CB00BFA0CFB4BEA06068660466846
:1004500026EA05050E79C6F3001696403543456039
:10046000C56825EA04048D6805FA0CFC4CEA040C06
:10047000C0F80CC0D1F804C01CF0805F63D0DFF876
:10048000ECC0DCF8604044F00104CCF86040DCF8DB
:1004900060C00CF0010CCDF800C022F0030C0CF190
:1004A000804505F58035D5F808C001E050E04AE008
:1004B0009407240F07FA04F62CEA0606B0F1904FD1
:1004C0004BD0A0F1904CBCF5806C43D0A0F1904C87
:1004D000BCF5006C44D04FF0070C0CFA04FC4CEA5D
:1004E000060CC5F808C0D8F800C02CEA030C4C680C
:1004F00014F4803F01D04CEA030CC8F800C0D9F8CE
:1005000000C02CEA030C4C6814F4003F01D04CEA04
:10051000030CC9F800C0DAF800C02CEA030C4C68E0
:1005200014F4801F01D04CEA030CCAF800C0DEF8B6
:1005300000C02CEA030C4C6814F4001F01D04CEAF4
:10054000030CCEF800C0521C0B68D3407FF439AFC7
:1005500000F00EB84FF0010CBFE74FF0000CBCE705
:100560004FF0020CB9E70000000401400010024007
:1005700018BCBDE8E08F0069084201D00120704737
:1005800000207047002A01D0816170478162704766
:1005900001480068704700003400002090F84120B6
:1005A000202A01D00220704790F84020012A20D054
:1005B000012280F84020242280F84120026813683C
:1005C00023F0010313600268136823F4805313605F
:1005D000026813681943116001680A6842F0010259
:1005E0000A60202180F84110002180F8401000208E
:1005F00070470220704790F84120202A01D0022045
:10060000704790F84020012A1ED0012280F8402037
:10061000242280F841200268136823F0010313604C
:100620000268136823F4706343EA012111600168D2
:100630000A6842F001020A60202180F8411000217E
:1006400080F84010002070470220704770B50446C3
:10065000002C04D094F84100002510B106E00120E0
:1006600070BD84F84050204600F002F9242084F840
:1006700041002068016821F0010101606068216883
:1006800020F0706008612068816821F40041816079
:10069000E068012808D0A068216840F40440886020
:1006A000E068022806D009E0A068216840F4004014
:1006B0008860F5E721684FF4006048602068416871
:1006C00041F4004141F0007141602068C16821F4AB
:1006D0000041C160616920690843A16940EA0120C5
:1006E0002168C860216AE0690843216808602068C1
:1006F000016841F0010101606564202084F8410037
:10070000256384F84250002070BD00002DE9F84FA9
:100710000446DDF82880894617469A4694F8410039
:10072000202802D0022000F09FB894F84000012851
:1007300010D0012084F84000FFF72AFF054601226F
:100740001923D1032046009501F048FF28B101206C
:1007500000F08AB8022000F087B8212084F8410018
:10076000102084F84200002666646762A4F82AA07C
:100770006663618D3A48FF27FF2908D93A462785E5
:10078000C30200904946204601F00EFF0AE0618D49
:100790002185009094F828204FF0007349462046A8
:1007A00001F002FF608D00283FD02A4641462046D6
:1007B00001F076FF10B1012000F056B8606A2168A0
:1007C00000788862606A401C6062608D401E6085AF
:1007D000208D401E80B22085618D19B310BB434629
:1007E000002280212046009501F0F8FE10B1012082
:1007F00000F03AB8608DFF2809D93A4627854FF0B6
:10080000807349462046009601F0CEFE0AE0608DD6
:100810002085009694F828204FF000734946204622
:1008200001F0C2FE608D0028BFD12A464146204615
:1008300001F00AFF10B1012000F016B82068202155
:10084000C16120684268074B1A40426084F8411039
:1008500084F8426084F84060002000F005B8000091
:100860000020008000E800FE18BCBDE8E08F00001A
:1008700000B500680F4987B0884218D14FF4C060B6
:100880000090122001900120029003200390042088
:10089000049069464FF09040FFF784FD0648816D53
:1008A00041F400118165806D00F40010059007B0DF
:1008B00000BD0000005400400010024002480168E2
:1008C000491C0160704700003400002010B500246E
:1008D000032000F0A3F8002000F008F808B101247C
:1008E00001E000F01BF8204610BD000070B5054681
:1008F000002409484FF47A720068B0FBF2F001F06E
:100900007FF908B1012404E000222946501E00F0BE
:1009100051F8204670BD0000380000201E4808B580
:10092000016E41F001010166016E01F001010091CB
:10093000816D41F080518165806D00F080500090A4
:10094000032000F06BF8002211466FF00B0000F05E
:1009500031F8002211466FF00A0000F02BF8002257
:1009600011466FF0090000F025F800221146501FD3
:1009700000F020F800221146101F00F01BF80022A2
:100980001146901E00F016F80022BDE808401146FE
:10099000501E00F00FB800000010024000F01F01D0
:1009A000012202FA01F14009800000F1E020C0F8C4
:1009B0000011704710B4184B1B68C3F30223C3F136
:1009C000070CBCF1040F01D94FF0040C1C1D072CBF
:1009D00001D2002300E0DB1E012404FA0CFCACF180
:1009E000010C0CEA0101994004FA03F35B1E1A4062
:1009F0001143002808DA00F00F0000F1E02009019F
:100A000080F8141D10BC704700F1E020090180F847
:100A1000001410BC704700000CED00E000F007006F
:100A2000064A11684FF6FF03194041EA002040F0E2
:100A3000FD7040F080601060704700000CED00E039
:100A40001949B0F5007F0DD0086800F4C060B0F51A
:100A5000806F05D0086820F4C06040F480600860B2
:100A600000207047086800F4C060B0F5007FF7D040
:100A7000086820F4C06040F4007008600B4832221F
:100A8000006842430A48B2FBF0F0401C00E0401E00
:100A90004A6912F4806F01D00028F8D1486910F437
:100AA000806FDDD0032070470070004038000020C8
:100AB00040420F000248006800F4C0607047000028
:100AC000007000400248016841F480710160704785
:100AD000007000400248016841F004010160704765
:100AE000001002402DE9F84F04460025002620881A
:100AF000AA4F10F4006F0AD0E06BC0B1B0F5000F40
:100B000010D0B0F5400F00D00125B5B12E462068B9
:100B100010F4003F46D04FF00008B86D10F0805F31
:100B200014D01DE0F86840F48030F860EDE7002153
:100B3000201D01F015FF0546E7E7D7F88800E16BB7
:100B400020F440000843C7F88800E0E7B86D40F0A3
:100B50008050B865B86D00F0805000904FF00108EB
:100B6000DFF83CA2DAF8000040F48070CAF8000018
:100B7000FFF70EFD8146DAF8000010F4807F0CD1FB
:100B8000FFF706FDA0EB0900022801D9032504E0C8
:100B9000DAF8000010F4807FF2D025B12E46B8F1CB
:100BA000010F40D043E0D7F8900000F44070A0B1AE
:100BB000216D814211D0D7F8900020F44070D7F811
:100BC000901041F48031C7F89010D7F8901021F4BC
:100BD0008031C7F89010C7F8900010F0010F16D0C0
:100BE000FFF7D6FC8146D7F8900010F0020F0ED127
:100BF00041F2883AFFF7CCFCA0EB0900504501D93F
:100C0000032504E0D7F8900010F0020FF2D00DB1E8
:100C10002E46C4E7D7F89000216D20F440700843B9
:100C2000C7F89000BBE7B86D20F08050B865207819
:100C300010F0010F07D0D7F88800216A20F00300D8
:100C40000843C7F88800207810F0020F07D0D7F8C3
:100C50008800616A20F00C000843C7F888002078FB
:100C600010F0200F07D0D7F88800A16A20F4406068
:100C70000843C7F88800208810F4007F07D0D7F811
:100C80008800616B20F440200843C7F88800208862
:100C900010F4806F07D0D7F88800A16B20F44010C3
:100CA0000843C7F88800207810F0400F07D0D7F825
:100CB0008800E16A20F440500843C7F88800208883
:100CC00010F4807F07D0D7F88800216B20F44030E3
:100CD0000843C7F88800208810F4005F1AD0D7F8BE
:100CE0008800216C20F040600843C7F88800206C21
:100CF000B0F1006F03D0B0F1806F05D00AE0F86862
:100D000040F48010F86005E00121201D01F028FE6C
:100D100000B10646206810F4802F1AD0D7F888005A
:100D2000616C20F040600843C7F88800606CB0F147
:100D3000006F03D0B0F1806F05D00AE0F86840F48E
:100D40008010F86005E00121201D01F009FE00B1CE
:100D50000646208810F4804F11D0D7F88800A16C87
:100D600020F040500843C7F88800A06CB0F1805FC5
:100D700005D10221201D01F0F3FD00B106462088B7
:100D800010F4004F07D0D7F88800E16C20F08040C5
:100D90000843C7F88800304600F004B8001002404D
:100DA0000070004018BCBDE8E08F00002DE9F0475E
:100DB00004460D46002C17D0DFF85081D8F800000B
:100DC00000F00700A84212D2D8F8000020F0070077
:100DD0002843C8F80000D8F8000000F00700A84237
:100DE00005D00120BDE8F0870120BDE8F08720781C
:100DF000474F10F0010F42D06068032807D0022847
:100E00000CD090B1396811F4806F2ED011E03968A0
:100E100011F0007F0DD10120BDE8F087396811F491
:100E2000003F06D10120BDE8F087396811F0020FBC
:100E300018D0B96821F003010843B860FFF7A8FB98
:100E40000646B868616800F00C00B0EB810F16D060
:100E500041F28839FFF79CFB801B484508D90320E5
:100E6000BDE8F0870120BDE8F0870120BDE8F087EC
:100E7000B868616800F00C00B0EB810FEAD120780F
:100E800010F0020F05D0B868A16820F0F000084308
:100E9000B860D8F8000000F00700A8420FD9D8F8D1
:100EA000000020F007002843C8F80000D8F8000030
:100EB00000F00700A84202D00120BDE8F0872078AA
:100EC00010F0040F05D0B868E16820F4E060084332
:100ED000B860207810F0080F06D0B868216920F4B7
:100EE000605040EAC100B86000F042F8B968094AB1
:100EF000C1F30311515C01F01F01C84006490860AD
:100F0000BDE8F0470020FFF7F1BC000000200240E0
:100F100000100240003F000838000020014800682F
:100F2000704700003800002000B5FFF7F7FF0549C3
:100F30008968054AC1F30221515C01F01F01C840D4
:100F400000BD000000100240403F000800B5FFF760
:100F5000E5FF05498968054AC1F3C221515C01F0EA
:100F60001F01C84000BD000000100240403F0008C3
:100F700030B4002200202B4B996801F00C01D3F80B
:100F80000CC00CF0030C284C6510002909D00C296A
:100F900002D1BCF1010F04D0042916D0082916D0C3
:100FA00016E01A6812F0080F08D01A68C2F303128C
:100FB000DFF878C05CF8222029B109E0D3F894204A
:100FC000C2F30322F4E7104602E0204600E0284680
:100FD0000C2917D1D86800F00301D868C0F30210BB
:100FE000401C022910D0032915D0B2FBF0F0D968BB
:100FF000C1F306214843D968C1F34161491C490046
:10100000B0FBF1F030BC7047B4FBF0F0D968C1F32D
:1010100006214843EFE7B5FBF0F0D968C1F306219C
:101020004843E8E7001002400024F400103F0008A5
:101030002DE9F8430446002C0ED0FC4EB06800F0B9
:101040000C05F06800F00307207810F0100F71D045
:10105000B5B10C2D03D004E00120BDE8F883012FC9
:101060000ED0A06900286FD0306840F001003060D9
:10107000FFF78EFA8046306810F0020F5BD068E010
:10108000306810F0020F01D0A06940B1206A3168C9
:1010900011F0080F06D0316801F0F00107E00120DF
:1010A000BDE8F883D6F8941001F47061090988420C
:1010B00017D901F005FD10B10120BDE8F8833068B3
:1010C00040F0080030603068216A20F0F0000843EA
:1010D00030607068E16920F47F4040EA0120706070
:1010E00017E0306840F0080030603068216A20F076
:1010F000F000084330607068E16920F47F4040EA06
:1011000001207060206A01F0DBFC10B10120BDE815
:10111000F883FFF72DFFB168C1F30312C449895C5E
:1011200001F01F01C840C34908600020FFF7DEFB43
:101130000028ECD137E0FFF72BFAA0EB08000228DB
:1011400003D90320BDE8F88315E0306810F0020FE2
:10115000F1D0306840F0080030603068216A20F03B
:10116000F000084330607068E16920F47F4040EA95
:101170000120706017E0306820F001003060FFF758
:1011800007FA8046306810F0020F0CD0FFF700FA23
:10119000A0EB0800022802D90320BDE8F8833068DC
:1011A00010F0020FF2D1207810F0010F58D0082D66
:1011B0001CD00C2D01D1032F18D06068B0F5803FF2
:1011C0001DD0B0F5A02F1FD0306820F480303060E3
:1011D000306820F480203060606860B3FFF7D8F991
:1011E0008046306810F4003F17D039E0306810F4C2
:1011F000003F35D0606870BB0120BDE8F8833068DF
:1012000040F480303060E7E7306840F480203060A0
:10121000306840F480303060DEE7FFF7B9F9A0EBCA
:101220000800642802D90320BDE8F883306810F470
:10123000003FF2D014E0FFF7ABF98046306810F4BD
:10124000003F0DD0FFF7A4F9A0EB0800642803D9F4
:101250000320BDE8F88303E0306810F4003FF1D1CB
:10126000207810F0020F50D0042D11D00C2D01D198
:10127000022F0DD0E06880B3306840F48070306099
:10128000FFF786F90746306810F4806F11D01CE034
:10129000306810F4806F01D0E06838B17068217C4C
:1012A00020F0F85040EA016070602EE00120BDE8B7
:1012B000F883FFF76DF9C01B022802D90320BDE8AF
:1012C000F883306810F4806FF3D07068217C20F0D0
:1012D000F85040EA0160706017E0FFE7306820F4E2
:1012E00080703060FFF754F90746306810F4806F63
:1012F0000BD0FFF74DF9C01B022802D90320BDE82F
:10130000F883306810F4806FF3D1207810F0080F64
:1013100038D06069D8B1D6F8940040F00100C6F822
:101320009400FFF735F90746D6F8940010F0020F45
:1013300028D1FFF72DF9C01B022802D90320BDE8F0
:10134000F883D6F8940010F0020FF2D01AE0D6F825
:10135000940020F00100C6F89400FFF719F9074641
:10136000D6F8940010F0020F0CD0FFF711F9C01B53
:10137000022802D90320BDE8F883D6F8940010F0C3
:10138000020FF2D1207810F0040F73D04FF0000854
:10139000B06D10F0805F09D1B06D40F08050B06545
:1013A000B06D00F0805000904FF00108DFF8889099
:1013B000D9F8000010F4807F1AD1D9F8000040F469
:1013C0008070C9F80000FFF7E3F80746D9F800007D
:1013D00010F4807F0CD1FFF7DBF8C01B022802D984
:1013E0000320BDE8F883D9F8000010F4807FF2D024
:1013F000A068012822D0052827D0D6F8900020F038
:101400000100C6F89000D6F8900020F00400C6F85D
:101410009000A06841F2883968B3FFF7B9F8074631
:10142000D6F8900010F0020F1CD040E000100240EF
:10143000003F00083800002000700040D6F89000FF
:1014400040F00100C6F89000E3E7D6F8900040F0C5
:101450000400C6F89000D6F8900040F00100C6F8ED
:101460009000D6E7FFF794F8C01B484504D9032045
:10147000BDE8F88322E005E0D6F8900010F0020FF6
:10148000F0D014E0FFF784F80746D6F8900010F08B
:10149000020F0CD0FFF77CF8C01B484502D903208F
:1014A000BDE8F883D6F8900010F0020FF2D1B8F141
:1014B000010F03D1B06D20F08050B065207810F09E
:1014C000200F38D0606AD8B1D6F8980040F00100FB
:1014D000C6F89800FFF75CF80746D6F8980010F0B9
:1014E000020F28D1FFF754F8C01B022802D90320AD
:1014F000BDE8F883D6F8980010F0020FF2D01AE099
:10150000D6F8980020F00100C6F89800FFF740F8E0
:101510000746D6F8980010F0020F0CD0FFF738F805
:10152000C01B022802D90320BDE8F883D6F8980032
:1015300010F0020FF2D1A06AF0B30C2D7AD002287D
:1015400008D0306820F080703060306810F0006F94
:101550004FD052E0306820F080703060FFF718F80C
:101560000546306810F0007F0BD0FFF711F8401BE4
:10157000022802D90320BDE8F883306810F0007F0C
:10158000F3D1216BE06A491E40EA0111606BA38F21
:1015900002024FF0FF3000EB530342EA4352114383
:1015A00094F8402000EB520041EA406094F8381073
:1015B00040EAC160F06000E039E0306840F08070DF
:1015C0003060F06840F08070F060FEF7E1FF0446A4
:1015D000306810F0007F2AD1FEF7DAFF001B0228E6
:1015E00002D90320BDE8F883306810F0007FF3D003
:1015F0001DE0F06820F00300F060F06820F488102F
:1016000020F08070F060FEF7C3FF0446306810F0F1
:10161000007F0CD0FEF7BCFF001B022803D903207B
:10162000BDE8F88306E0306810F0007FF2D10020BA
:10163000BDE8F8830120BDE8F883704770470000DB
:1016400010B5044615494FF4802008602168886869
:1016500010F4805F0CD0C86810F4807F08D0C86890
:1016600000F0800060F4C070C8602046FFF7E6FF1D
:101670002168886810F4005F0CD0C86810F4007FFF
:1016800008D0C86800F0800060F42070C860204670
:10169000FFF7D3FF012084F8210010BD140401409E
:1016A0002DE9F04104460125002C5CD0002594F87A
:1016B000210028B9002084F82000204600F056F8C8
:1016C000022084F821002168CA2048622168532042
:1016D0004862204601F05FFA0427FF2628B12068FF
:1016E000466284F8217001253DE02068816821F080
:1016F000400121F4E0018160206881686268A3698B
:10170000114322691A43114381602168E06808612E
:1017100020680169228941EA024101612068C168AB
:1017200021F08001C1602068806810F0200F08D18E
:10173000204600F037FA20B12068466284F8217014
:10174000012585B92068C16C21F00301C16461697C
:10175000E06901432068C26C1143C164206846629D
:10176000012084F821002846BDE8F08110B500680A
:10177000094988420FD1094850F8901F41F40041AF
:101780000160002211462920FFF714F9BDE810403E
:101790002920FFF703B910BD0028004000100240C7
:1017A0002DE9F05F04460B4694F82000012811D083
:1017B0004FF0010A84F820A0022084F821000027BD
:1017C0005AB12068806810F0400F28D0187801F0D6
:1017D000CDF925E0022000F0DFB82068806810F025
:1017E000400F00D1DF70187801F0C9F90204587871
:1017F00001F0C5F942EA0022987801F0C0F9D978E1
:10180000104340EA815293F8200001F0B8F9D969F9
:1018100042EA00600843596940EA01051AE0DF70B6
:10182000D86900283DD093F8200001F09FF99878FE
:101830001978DA7840EA01405978090241EA825180
:10184000084393F8201040EA0160D96908435969B8
:1018500040EA01059969586840EA01062168CA20F2
:101860004862216853204862586A4FF0FF094FF0E0
:10187000030BB0F5807F19D02068816821F40071D6
:1018800081602068C16801F0800161F42071C1604D
:10189000FEF77EFE80462068C06810F0020F3ED042
:1018A00053E093F8200001F061F9C0E720688168F7
:1018B00021F4807181602068C16801F0800161F4C9
:1018C000C071C160FEF764FE80462068C06810F0F9
:1018D000010F15D1FEF75CFEA0EB0800B0F57A7F92
:1018E00009D92068C0F8249084F821B084F82070C9
:1018F000032000F051B82068C06810F0010FE9D053
:101900002068C561206846642068816841F4807160
:1019100081602068816841F48051816023E0FEF796
:1019200037FEA0EB0800B0F57A7F09D92068C0F82F
:10193000249084F821B084F82070032000F02CB8A3
:101940002068C06810F0020FE9D0206805622068A6
:1019500086642068816841F4007181602068816834
:1019600041F4005181600A48016841F4802101601E
:101970000848016841F4802101602068C0F8249083
:1019800084F821A084F82070002000F005B8000041
:10199000000401400804014030BCBDE8C09F2DE9AF
:1019A000F04704460B4694F82000012807D0012692
:1019B00084F82060022084F821001AB10AE0022095
:1019C000BDE8F087587810F0100F03D000F0EF005A
:1019D0000A3058701AB39878D9781A7840EA0140DA
:1019E0005978090241EA423140EA01052168CA20DA
:1019F0004862216853204862204601F0CCF8002755
:101A00004FF0FF084FF00409D0B12068C0F82480DF
:101A100084F8219084F820700120BDE8F087D87800
:101A200001F0ADF80204587801F0A9F842EA00226A
:101A3000987801F0A4F81978104340EA4135D5E7C9
:101A4000216825F0C00020F07F4048602068C16810
:101A500021F08001C1602068806810F0200F0DD156
:101A6000204600F09FF848B12068C0F8248084F830
:101A7000219084F820700120BDE8F0872068C0F82C
:101A8000248084F8216084F820700020BDE8F0876D
:101A90002DE9F04704460D46924694F820000128AF
:101AA0001DD04FF0010884F82080022084F8210026
:101AB0002168CA204862216853204862204601F00C
:101AC0006AF8FF274FF00409002658B120684762E2
:101AD00084F8219084F820600120BDE8F08702207E
:101AE000BDE8F087BAF1000F08D02068806810F0D8
:101AF000400F1AD0287801F039F817E02068806884
:101B000010F0400F00D1EE70287801F038F8020490
:101B1000687801F034F842EA0022A87801F02FF842
:101B2000E978104340EA81500AE0EE70A8782978FD
:101B3000EA7840EA01406978090241EA82510843A3
:101B400017490840216808602068816821F48021D5
:101B500081602969E86801432068826811438160D7
:101B60002068C16821F08001C1602068806810F0A1
:101B7000200F0CD1204600F015F840B120684762D4
:101B800084F8219084F820600120BDE8F087206867
:101B9000476284F8218084F820600020BDE8F08747
:101BA0007F7F7F0070B504462068C16821F0A001E6
:101BB000C160FEF7EDFC05462068C06810F0200FFC
:101BC0000CD1FEF7E5FC401BB0F57A7F01D903206C
:101BD00070BD2068C06810F0200FF2D0002070BDEA
:101BE0004FF0E021042804D0086920F004000861C7
:101BF0007047086940F004000861704770470000B2
:101C0000401EB0F1807F01D3012070474FF0E021EA
:101C10004861044AF02010700020886107200861A4
:101C20000020704723ED00E010B5FFF7E7FF10BD7F
:101C300010B490F83C20012A3BD0012280F83C20CF
:101C4000CA684FF0000C8B6822F440721A434B684C
:101C500022F480621A430B6822F400621A430B6973
:101C600022F480521A434B6922F400521A438B6AC1
:101C700022F480421A430B8B22F4702242EA034280
:101C80000368A3F18044B4F596340CD18C8C22F413
:101C9000700242EA0452CC6922F080722243096A3F
:101CA00022F000720A435A6480F83CC010BC002045
:101CB000704710BC0220704730B490F83C20012AD5
:101CC00026D0012480F83C40022280F83D200368A1
:101CD0005A68D3F808C0A3F18045B5F5963503D10D
:101CE00022F470024D682A4322F070020D682A43E4
:101CF0002CF0800C896841EA0C015A6002689160FE
:101D000080F83D40002180F83C1030BC0020704736
:101D100030BC02207047000000B50068094985B05A
:101D200088420DD180150090022001900020029081
:101D300003900120049069464FF09040FEF732FB7B
:101D400005B000BD002C014070B504460D4694F866
:101D50003C0001280ED0012684F83C60022084F863
:101D60003D000C2A4AD007DC5AB1042A1DD0082AAB
:101D700043D12FE0022070BD102A54D0142A7AD10A
:101D800065E02946206801F00BF82068816941F080
:101D9000080181612068816921F004018161206866
:101DA00081692A691143816165E02946206801F053
:101DB00039F82068816941F4006181612068816996
:101DC00021F480618161206881692A6941EA0221E8
:101DD000816150E02946206801F064F82068C169FB
:101DE00041F00801C1612068C16921F00401C161AD
:101DF0002068C1692A691143C1613CE02946206815
:101E000001F090F82068C16941F40061C161206867
:101E1000C16921F48061C1612068C1692A6941EA10
:101E20000221C16127E02946206801F0AEF8206850
:101E3000416D41F0080141652068416D21F00401C8
:101E400041652068416D2A691143416513E02946C7
:101E5000206801F0CAF82068416D41F400614165D5
:101E60002068416D21F4806141652068416D2A69D7
:101E700041EA0221416584F83D60002084F83C007D
:101E800070BD10B50446002C03D094F83D0010B18D
:101E900007E0012010BD002084F83C00204600F03F
:101EA0000DF8022084F83D00211D206800F02EFF6F
:101EB000012084F83D00002010BD000008B5006836
:101EC0000649884208D10648016E41F40061016666
:101ED000006E00F40060009008BD0000002C01407E
:101EE0000010024010B504460122206800F048FFAF
:101EF0002168A1F18040B0F5963009D0A1F1804071
:101F0000B0F5A03004D0A1F18040B0F5A23003D1EB
:101F1000486C40F4004048642068826807490A40E1
:101F2000062A08D082681140B1F5803F03D00168CD
:101F300041F001010160002010BD00000700010018
:101F40007047704770B504462368D86919689A6865
:101F500000F00F0CBCF1000F0CD110F0200F09D0D5
:101F600011F0200F06D0216E002977D02046BDE861
:101F700070400847BCF1000F7BD002F0010C01F467
:101F800090755CEA050574D010F0010F08D011F4CB
:101F9000807F05D001251D62636F43F001036367F5
:101FA00010F0020F09D012F0010F06D025680223AD
:101FB0002B62636F43F00403636710F0040F09D0D2
:101FC00012F0010F06D0236804221A62626F42F0F9
:101FD0000202626710F0080F0BD001F0200252EAF3
:101FE0000C0206D0236808221A62626F42F00802CF
:101FF0006267626F002A31D010F0200F06D011F016
:10200000200F03D0216E09B120468847606F10F081
:10201000080F04D12068806810F0400F23D02046BC
:1020200001F0BCF82068816811F0400F17D081687A
:1020300021F040018160E06E68B121498163E06E6A
:10204000FEF77AF9002809D0E06E816BBDE8704098
:10205000084703E00DE02046FFF773FF70BD204600
:10206000FFF76FFF70BD2046FFF76BFF0020606732
:1020700070BD10F4801F0AD012F4800F07D04FF407
:10208000801018622046BDE87040FFF759BF10F07D
:10209000800F09D011F0800F06D0616E0029E7D0C3
:1020A0002046BDE87040084710F0400FE0D011F026
:1020B000400FDDD02046BDE8704001F07FB8000041
:1020C0008931000810B50446002C03D094F8710043
:1020D00010B107E0012010BD002084F870002046F8
:1020E00000F028F8242084F871002068016821F0AD
:1020F00001010160204601F06FF8012818D0606AE4
:1021000010B1204600F0A2FF2068416821F4904100
:1021100041602068816821F02A018160206801689F
:1021200041F0010101602046BDE8104000F0FABF17
:10213000012010BD00B50068124987B088421FD148
:102140001148816D41F400318165806D694600F46C
:10215000003005900C200090022001900020029099
:1021600003200390072004904FF09040FEF71AF9E7
:10217000002211462620FEF71DFC2620FEF70EFC4D
:1021800007B000BD00440040001002402DE9F84FA8
:1021900004460D461646984694F87200202802D050
:1021A000022000F076B805B3FEB194F87000012863
:1021B0001ED0012084F870004FF00009C4F874901C
:1021C000222084F87200FEF7E3F98246A4F85860F2
:1021D000A4F85A60A068FF21B0F5805F0BD07F2281
:1021E00098B1B0F1805F18D01CE0012000F051B828
:1021F000022000F04EB8206910B1A4F85C1011E084
:1022000040F2FF10A4F85C000CE0206910B1A4F8C3
:102210005C2007E0A4F85C1004E02069A0B13F2036
:10222000A4F85C00B4F85C60B4F85A0018B3F7B2D4
:102230005346002220212046CDF8008001F05AF9B3
:1022400028B1032000F025B8A4F85C20EAE7A068D4
:10225000B0F5805F01D12069A8B12068808C38403A
:1022600005F8010BB4F85A00401EA4F85A00B4F85F
:102270005A000028DCD1202084F8720084F8709085
:10228000002000F006B82068808C30402880AD1C0B
:10229000E8E718BCBDE8E08F2DE9F84304460D4699
:1022A00091461E4694F87100202802D00220BDE815
:1022B000F8831DB3B9F1000F20D094F87000012805
:1022C0001FD0012084F8700000276767212084F860
:1022D0007100FEF75DF98046A4F85090A4F8529082
:1022E000B4F8520018B343460022802120460096DD
:1022F00001F000F940B10320BDE8F8830120BDE8FA
:10230000F8830220BDE8F883A068B0F5805F01D1B2
:102310002069B8B1216815F8010B0885B4F852009E
:10232000401EA4F85200B4F852000028DBD1434606
:10233000002240212046009601F0DCF848B103203D
:10234000BDE8F88328882168C0F308000885AD1C23
:10235000E4E7202084F8710084F870700020BDE864
:10236000F883704710B5012000F04AFCBDE810402A
:102370004FF4FA60FDF7B6BF70B50D4600F00700E8
:10238000402141EAC00000F03BFC0024285D00F041
:1023900034FC641C082CF9DB70BD0000044948784B
:1023A00040F00400487040F0080000F029BC000034
:1023B0000000002010B5022000F022FCBDE8104013
:1023C0004FF4FA60FDF78EBF70B5334C0822002140
:1023D000E070227104252170012801D9227000E0EB
:1023E00025702E48026822F080720260026842F076
:1023F000807202602A48026822F0010202600268CC
:1024000042F001020260416000BF00BF00BF322005
:10241000FDF7B9FF2079FDF77BFF4FF47A70FDF7E8
:10242000B2FF302001F0B7F841F294163046FDF7C4
:1024300059FF302001F0AFF83046FDF753FF302050
:1024400001F0A9F83046FDF74DFF202001F0A3F878
:102450006420FDF747FF207840F0200000F0D0FB1B
:102460006570FFF79BFFFFF77DFF0220A07006203D
:1024700000F0C6FB3046FDF735FF07490020491D37
:10248000FFF77AFF044901200D31FFF775FFBDE822
:102490007040FFF78FBF000000000020FCED00E05F
:1024A000001000E010B5044602E0641C00F0A5FB3B
:1024B00020780028F9D110BD7FB5094D3CCD8DE8BD
:1024C0003C00084AD278914201D3521ED1B21DF885
:1024D00021100844C0B240F0800000F091FB7FBDA5
:1024E000F03E000800000020FEE701688A6912F053
:1024F000020F01D000228A620068816911F0010F89
:1025000003D1816941F00101816170472DE9F041FA
:1025100004460D4616462068816911F0100F3DD023
:1025200080694FF0000710F0200F4FF020080DD108
:10253000B5F1FF3F05D0FEF72BF8801BA84220D84D
:10254000FDB12068806910F0200FF1D021681020C3
:10255000C8612068C0F81C802046FFF7C6FF2068CD
:102560004168104A11404160606C40F004006064B2
:1025700084F8418084F8427084F840700120BDE8FE
:10258000F081606C40F02000606484F8418084F841
:10259000427084F840700120BDE8F0810020BDE861
:1025A000F081000000E800FE70B4DDF80CC00068A7
:1025B00044684FF48065084EC1F3090105EA5C5593
:1025C00041EA024135431943AC4341EA0C0121433E
:1025D000416070BC70470000FF63FF032DE9F041CC
:1025E0000446069F884616461D462068806938EADC
:1025F000000016D00020B04210D1B5F1FF3F05D049
:10260000FDF7C6FFC01BA8420DD865B120688069E0
:1026100038EA000016D00020B042EED00020BDE81D
:10262000F0810120E7E7606C40F02000606420202A
:1026300084F84100002084F8420084F84000012022
:10264000BDE8F0810120E7E770B504460D46164667
:102650002068806910F0200F12D1324629462046AA
:10266000FFF754FF08B1012070BDFDF791FF801BFB
:10267000A84207D835B12068806910F0200FECD04F
:10268000002070BD606C40F020006064202084F861
:102690004100002084F8420084F84000012070BD11
:1026A00070B504460D4616462068806910F0020F8A
:1026B00015D1324629462046FFF728FF08B10120F0
:1026C00070BDB5F1FF3F05D0FDF762FF801BA8424A
:1026D00007D835B12068806910F0020FE9D00020DA
:1026E00070BD606C40F020006064202084F84100E0
:1026F000002084F8420084F84000012070BD0000F2
:10270000F0B5234887B0C16C41F00401C164C16CCD
:1027100001F004010591C16C41F00101C164C16C7B
:1027200001F001010591C16C41F00201C164C06C6E
:102730004FF0904600F0020005900022E221304662
:10274000FDF720FF134F002209213846FDF71AFF3D
:10275000002441F61100CDE9000469463046029498
:10276000FDF720FEE22000900125CDE901546946E5
:1027700030460394FDF716FE09200090CDE9015480
:10278000694638460394FDF70DFE07B0F0BD000022
:102790000010024000040048114810B50F490160C4
:1027A0001049416000210122C0E90212016141612A
:1027B0008161C1610162FDF749FF00B1FEE70021BF
:1027C0000748FDF7EBFE00B1FEE700210448FDF7E6
:1027D00012FF002800D0FEE710BD000000540040AA
:1027E00040000020EC9C901030B5284891B026495C
:1027F0000024C0E900147F218160FF21C0E9031497
:1028000044618461C461FEF74BFF00B1FEE78DF8BF
:1028100028408DF829408DF82A400D9401220AA9FC
:102820001A480E94FFF734F900B1FEE701258DF840
:102830003C508DF83D508DF83E508DF83F402A4673
:102840000FA91248FFF7ABF800B1FEE78DF8004082
:102850008DF8014010208DF802000D480194CDE95B
:1028600004404FF4807003940990069407948DF807
:102870002050012269460548FEF792FF002800D04B
:10288000FEE711B030BD0000002800408C000020A1
:102890000080808010B5214896B01F490024C0E90F
:1028A00000146321C0E90241046144618461FFF7BF
:1028B000E8FA00B1FEE71294139412A91748149491
:1028C000FFF7FAF900B1FEE76020CDE90B040D94A3
:1028D0000E940F94109400220BA910481194FFF746
:1028E00033FA00B1FEE700944FF40050CDE9044004
:1028F00001940294039400030694CDE907400994DF
:10290000694606480A94FFF793F900B1FEE70348C9
:10291000FFF702FA16B010BD002C0140B0000020F5
:102920000C4810B50A4901604FF4E13141600021C3
:1029300081600C22C160C0E904128161C161016241
:102940004162FFF7BFFB002800D0FEE710BD00008A
:1029500000440040F0000020FEE770477047000090
:102960002DE9F041054688460024544EF06810F0E9
:10297000030F28680ED0F16801F00301814207D1EE
:1029800030B1F0686968C0F30210401C884229D059
:10299000012427E0012806D002280AD003280ED0FF
:1029A0000124B4B11EE0316811F0020FF9D1012405
:1029B000F7E7316811F4806FF3D10124F1E7316852
:1029C00011F4003FEDD1316811F4802FE9D10124D9
:1029D000E7E7F1686A6821F07301521E41EA0211CB
:1029E0000843F060002C65D1306820F080603060D2
:1029F000FDF7CEFD0746306810F0006F0AD0FDF7F6
:102A0000C7FDC01B022801D9032403E0306810F081
:102A1000006FF4D1ECBBB8F1000F1ED04FF0FF30C7
:102A2000B8F1010F26D0A9682A7D090200EB5200F7
:102A300041EA4060316921F4FE4121F0C061084360
:102A40003061306840F080603060FDF7A1FD0746DE
:102A5000306810F0006F1DD027E0A868297B0002C5
:102A600040EAC160316921F4FE4121F07841084318
:102A70003061E6E7A9682A8A090200EB520041EAC0
:102A80004050316921F4FE4121F4C0010843306116
:102A9000D7E70FE0FDF77CFDC01B022801D9032416
:102AA00003E0306810F0006FF4D01CB93069A969F8
:102AB000084330612046BDE8F0810000001002406C
:102AC000F8B5054600241D4EB06D10F0805F02D0B1
:102AD000FDF7F0FF0DE0B06D40F08050B065B06DD7
:102AE00000F080500090FDF7E5FFB16D21F08051BE
:102AF000B165B0F5007F04D0802D0AD94FF00304F2
:102B00000DE0802D0BD9A02D01D9022407E001246E
:102B100005E001D1022402E0702D00D10124084813
:102B2000016821F0070121430160006800F00700FF
:102B3000A04201D00120F8BD0020F8BD00100240E5
:102B40000020024010B5012220214FF09040FDF7F7
:102B500019FD044901200860BDE810400248FEF755
:102B60006FBD0000310000208C000020010901EB46
:102B70008101490000F00F000844C0B270470021F5
:102B80000A2804D3491C0A38C0B20A28FAD2090715
:102B900040EA1160704770B504462068C16811F0C2
:102BA000400F17D14FF0FF31C160FDF7F1FC054632
:102BB0002068C06810F0400F0CD1FDF7E9FC401B05
:102BC000B0F57A7F01D9032070BD2068C06810F08D
:102BD000400FF2D0002070BD704770B500F0F002D9
:102BE00000070C46050E42EA040000F0D4FC45EA5A
:102BF0000400BDE8704000F0CEBC0121FFF7EDBF3E
:102C00000021FFF7EABF10B5FDF758FEBDE8104000
:102C1000FFF70AB810B5ACB0FDF754FF274850F8DD
:102C2000901F21F0180101601C20009001200290EB
:102C30000590002460210690CDE907410221CDE9ED
:102C40000A100C9028200D900720CDE90E0168464F
:102C50001091FEF7EDF900B1FEE70F20269003205A
:102C6000CDE927042994042126A82A94FEF79EF88A
:102C700000B1FEE712481A941C941190041211A896
:102C80002594FDF72FFF00B1FEE72046FDF7D8FEA3
:102C900000B1FEE7FEF742F94FF47A71B0FBF1F0B4
:102CA000FEF7AEFF0420FEF79BFFFDF713FF0022A7
:102CB0001146501EFDF77EFE2CB010BD00100240E4
:102CC000420002000E48016841F4700101600D48A5
:102CD000016841F00101016000218160026822F475
:102CE000102222F0A85202608214C260026822F40C
:102CF0008022026081610449C003086070470000BF
:102D000088ED00E00010024008ED00E030B40268F9
:102D1000184B984202D0B0F1804F05D122F07002DA
:102D2000D1F804C04CEA0202DFF84CC0134C9842C0
:102D300006D0B0F1804F03D0604501D0A04203D14E
:102D400022F44072CD682A434D6922F080022A4362
:102D500002608A68C2620A688262984203D0604553
:102D600001D0A04201D1096901630121416130BC58
:102D700070470000002C0140004001400044014029
:102D800001F01F0101238B40D0F820C02CEA03037F
:102D90000362036A02FA01F11943016270470000FD
:102DA000F0B4026A22F001020262026A4368D0F8BB
:102DB00018C02CF0700C2CF4803C2CF0030C0C6828
:102DC00044EA0C0C22F002028C682243124C134D90
:102DD000134EA04203D0A84201D0B04205D122F048
:102DE0000802CF683A4322F00402A04203D0A8426E
:102DF00001D0B04207D123F4807323F400734C69EF
:102E000023438C6923434360C0F818C04968416379
:102E10000262F0BC70470000002C014000400140FD
:102E20000044014010B4026A22F010020262026AF9
:102E30004368D0F818C02CF4E04C2CF0807C2CF4C3
:102E4000407C0C684CEA042C22F020028C6842EA98
:102E50000412134CA04206D122F08002CC6842EA50
:102E6000041222F0400209D0A0F18044B4F5A0344D
:102E700004D0A0F18044B4F5A23409D123F48063D6
:102E800023F400634C6943EA84038C6943EA8403B6
:102E90004360C0F818C049688163026210BC704783
:102EA000002C014010B4026A22F480720262026AAD
:102EB0004368D0F81CC02CF0700C2CF4803C2CF033
:102EC000030C0C6844EA0C0C22F400728C6842EA91
:102ED0000422134CA04206D122F40062CC6842EADC
:102EE000042222F4806209D0A0F18044B4F5A03419
:102EF00004D0A0F18044B4F5A23409D123F4805366
:102F000023F400534C6943EA04138C6943EA041325
:102F10004360C0F81CC04968C163026210BC7047BE
:102F2000002C014010B4026A22F480520262036A4B
:102F30004268D0F81CC02CF4E04C2CF0807C2CF4BF
:102F4000407C0C684CEA042C23F400538C6843EA60
:102F50000433A0F18044B4F5963409D0A0F1804444
:102F6000B4F5A03404D0A0F18044B4F5A23404D167
:102F700022F480424C6942EA84124260C0F81CC0CC
:102F800049680164036210BC704710B4026A22F4FD
:102F900080320262D0F820C04268436D23F0700393
:102FA00023F480330C6823432CF4003C0C894CEA56
:102FB000044CA0F18044B4F5963409D0A0F18044CB
:102FC000B4F5A03404D0A0F18044B4F5A23404D107
:102FD00022F480324C6942EA042242604365496827
:102FE0008165C0F820C010BC704710B4026A22F49A
:102FF00080120262D0F820C04268436D23F4E0439F
:1030000023F080730C6843EA04232CF4001C0C8921
:103010004CEA045CA0F18044B4F5963409D0A0F1E8
:103020008044B4F5A03404D0A0F18044B4F5A234B7
:1030300004D122F480224C6942EA84224260436532
:103040004968C165C0F820C010BC704790F82410D2
:1030500011F0010F06D001684A68836A22F4003239
:103060001A434A6090F8241011F0020F06D001684C
:103070004A68C36A22F480321A434A6090F82410E6
:1030800011F0040F06D001684A68036B22F4802215
:103090001A434A6090F8241011F0080F06D0016816
:1030A0004A68436B22F400421A434A6090F82410A5
:1030B00011F0100F06D001688A68836B22F48052E9
:1030C0001A438A6090F8241011F0200F06D001688E
:1030D0008A68C36B22F400521A438A6090F8241065
:1030E00011F0400F11D001684A68036C22F480127D
:1030F0001A434A60016CB1F5801F06D101684A6825
:10310000436C22F4C0021A434A6090F8241011F074
:10311000800F06D001684A68806C22F400221043B8
:1031200048607047F8B5044600266667FDF730FA38
:103130000746206800686FF07E4510F0080F0AD03F
:103140003B4600224FF400112046009500F0D2F9D2
:1031500008B10320F8BD2068006810F0040F0AD001
:103160003B4600224FF480012046009500F0C2F952
:1031700008B10320F8BD202084F8710084F87200A3
:1031800084F870600020F8BD10B5806A0021A0F8B6
:103190005A10A0F85210FEF7D4FE10BD01680A685C
:1031A00022F490720A6001688A6822F001028A6043
:1031B000202180F8721000210166704710B5016867
:1031C0000A6822F040020A60202180F87110002174
:1031D0004166FFF7C6F810BD2DE9F04704461026FA
:1031E000002500270020BC4B2168D4F810C0A2683D
:1031F000D4F81C8042EA0C02D4F814C04CEA080C43
:1032000042EA0C02D1F800C0DFF8D0820CEA080CC8
:103210004CEA02020A6021684A68D4F80CC022F421
:10322000405242EA0C024A60A16922689A4203D0E5
:10323000D4F820C04CEA0101D2F808C02CF4306C5C
:103240004CEA010191602268A549A2F1804CBCF5CD
:103250009C3C15D0A2F1804CBCF5884C24D09A42FD
:103260003DD1D1F8881011F4406131D0B1F5806FB3
:1032700032D0B1F5006F2DD0B1F5406F2FD12DE0D8
:10328000D1F8881011F0030106D0012908D00229D5
:1032900004D0032923D105E0012620E002261EE008
:1032A00004261CE008261AE0D1F8881011F00C0161
:1032B00006D0042908D0082904D00C290FD105E034
:1032C00000260CE002260AE0042608E0082606E0B4
:1032D000002604E0022602E0042600E00826DFF8CB
:1032E00004C24FF000089A4260D196B1022E13D06A
:1032F000042E13D0082E14D00127002855D0626860
:1033000002EB4201814202D8B0EB023F0CD9012707
:10331000DBE0FDF709FEF0E76046EEE7FDF728FE8B
:10332000EBE74FF40040E8E776B1022E1AD0042E06
:1033300022D0082E2ED001276B49A5F54070884277
:1033400032D82068C560C0E0FDF7EEFD6268010E6E
:1033500003025008181841EB08010023FCF732FF64
:103360000546E9E761495008401848F1000100238B
:10337000FCF728FF0546DFE7FDF7FAFD6268010E5E
:1033800003025008181841EB08010023FCF71AFF4C
:103390000546D1E7500810F5000048F10001002370
:1033A000FCF710FF0546C7E701278EE0E0694FF6FE
:1033B000EF79B0F5004F08D0092E7DD2DFE806F096
:1033C0004D57617C687C7C7C7300092E35D2DFE828
:1033D00006F0050F1934213434342B00FDF7A4FD19
:1033E0004100606801EB5001B1FBF0F085B225E0CF
:1033F000FDF7ACFD4100606801EB5001B1FBF0F05E
:1034000085B21BE03A49606801EB5001B1FBF0F076
:1034100085B213E0FDF7ACFD4100606801EB50019F
:10342000B1FBF0F085B209E060684FF4803101EB48
:103430005001B1FBF0F085B200E00127A5F11000CA
:10344000484508D84FF6F0702840C5F342010843BC
:103450002168C86039E0012737E0FDF765FD0146C6
:10346000606801EB5001B1FBF0F085B225E0FDF79B
:103470006DFD0146606801EB5001B1FBF0F085B2D3
:103480001BE061680CEB5100B0FBF1F085B214E079
:10349000FDF76EFD0146606801EB5001B1FBF0F0F5
:1034A00085B20AE008E060684FF4004101EB50018A
:1034B000B1FBF0F085B200E00127A5F1100048450E
:1034C00002D82068C56000E00127C4F86080C4F815
:1034D00064803846BDE8F08700800040F369FFEF64
:1034E000001002400024F400FFFC0F00000024F450
:1034F0000048E8012DE9F0410446069D884617463C
:103500001E462068C06938EA000020D00020B8427A
:1035100027D1B5F1FF3F1CD025B1FDF739F8801B4D
:10352000A84216D92068016821F4D0710160206892
:10353000816821F001018160202084F8710084F805
:103540007200002084F870000320BDE8F0810120A3
:10355000DDE72068C06938EA000005D00020B842E5
:10356000D7D00020BDE8F0810120F8E708B5074971
:103570000120024608604FF47A7369460448FEF75A
:1035800005FE0348FEF7DEFC08BD00002800002011
:10359000F0000020FEE710B50446FCF7B9FE44F049
:1035A0000400FCF7B5FE1420FCF79CFE24F0040098
:1035B000FCF7AEFEBDE810401420FCF793BE0000FF
:1035C0000FB4084B10B504A902AA039800F01CF828
:1035D000044602A9002000F0C4F8204610BC5DF8A3
:1035E00014FB00006337000802E008C8121F08C17E
:1035F000002AFAD170477047002001E001C1121F74
:10360000002AFBD1704700002DE9FF4F89B09B468F
:103610000446002506E025280BD05A460B99904712
:10362000641C6D1C20780028F5D10DB0284600F0F0
:1036300095B80027B8460122474900E0074314F82F
:10364000013F203B02FA03F00842F7D120782E28F0
:1036500019D114F8010F47F004072A280ED06FF093
:103660002F022078A0F1300109290CD808EB88013D
:1036700002EB410100EB0108641CF2E70A98641CAC
:1036800050F8048B0A9020780028CED0642808D007
:10369000692806D075281ED05A460B9990476D1C94
:1036A00058E00A994FF00A0901C90A91002802DA84
:1036B00040422D2102E0390504D52B218DF8201040
:1036C000012103E0F90704D02021F7E78A4608AE7C
:1036D0000DE00021FAE70A994FF00A0901C90A91A1
:1036E000F7E74946FCF7B4FD303106F8011D002824
:1036F000F7D1ADEB060000F12009780701D44FF0B7
:103700000108C84502DDA8EB090000E00020804662
:10371000002706E008A85A46C05D0B9990476D1C2B
:103720007F1C5745F6DB04E030205A460B99904742
:103730006D1CB8F10001A8F10108F5DC05E016F8F0
:10374000010B5A460B9990476D1CB9F10001A9F184
:103750000109F4DC641C65E70928010030BCBDE800
:10376000C08F0A68531C0B60107070470EB5DFF8ED
:103770005CA443F23900DFF85884CAF80000012045
:103780004FF0000BC8E9030BFDF7A0F8FFF742FA72
:10379000FEF7B6FFFFF7C4F8FFF726F8FEF7FCFFC9
:1037A000FFF778F8AAF178000068016841F020017D
:1037B00001600021AAF1B800FEF794FBAAF1B8005D
:1037C00043F67F61006881620220FEF7FDFDFEF78F
:1037D000C9FD00210846FEF76FFEFEA0FEF762FE5F
:1037E00001210020FEF768FEFCA0FEF75BFE4FF40F
:1037F000FA60FCF7C8FD08F1140500BFD8F8100006
:10380000B8B3D8F80C00632833D0FCF70FFDF549A6
:1038100090FBF1F201FB120142F20F700A18D8F886
:103820000C00F1A14AF82020401CC8F80C006846A2
:10383000FFF7C6FE01210420FEF73EFE6846FEF7B4
:1038400031FEE2484FF47A73052269467838FEF774
:1038500023FDDE4864230122E4A17838FEF71CFD35
:10386000DA4864230122E2A17838FEF715FDC8F892
:1038700010B04FF09044002220212046FCF782FE39
:10388000012202212046FCF77DFE01224021204634
:10389000FCF778FE012280212046FCF773FE4FF4EE
:1038A000006739462046FCF766FED8B93E463146E9
:1038B0002046FCF760FE0028F9D0312088F800008F
:1038C000D8F8041005290DDA685400210720FEF706
:1038D000F3FDBF481430FEF7E5FDD8F80400401CA6
:1038E000C8F804004FF4805631462046FCF743FEEA
:1038F000D0B931462046FCF73EFE0028F9D03420EE
:1039000088F80000D8F8041005290DDA6854002161
:103910000720FEF7D1FDAE481430FEF7C3FDD8F8FE
:103920000400401CC8F8040001212046FCF723FED7
:10393000D0B901212046FCF71EFE0028F9D037211E
:1039400088F80010D8F8040005280DDA2954002161
:103950000720FEF7B1FD9E481430FEF7A3FDD8F80E
:103960000400401CC8F8040010212046FCF703FEA8
:10397000D0B910212046FCF7FEFD0028F9D03021F7
:1039800088F80010D8F8040005280DDA2954002121
:103990000720FEF791FD8E481430FEF783FDD8F81E
:1039A0000400401CC8F80400012220212046FCF736
:1039B000E9FD002202212046FCF7E4FD012240211E
:1039C0002046FCF7DFFD012280212046FCF7DAFDCE
:1039D00039462046FCF7CFFDD0B939462046FCF7E2
:1039E000CAFD0028F9D0322188F80010D8F8040068
:1039F00005280DDA295400210720FEF75DFD7448E3
:103A00001430FEF74FFDD8F80400401CC8F804003D
:103A1000B14631462046FCF7AEFDD8B94E46314698
:103A20002046FCF7A8FD0028F9D0352188F80010C1
:103A3000D8F8040005280DDA295400210720FEF7E4
:103A40003BFD63481430FEF72DFDD8F80400401C00
:103A5000C8F8040001212046FCF78DFDD0B90121F2
:103A60002046FCF788FD0028F9D0382188F800109E
:103A7000D8F8040005280DDA295400210720FEF7A4
:103A80001BFD53481430FEF70DFDD8F80400401C10
:103A9000C8F8040010212046FCF76DFDD0B91021B4
:103AA0002046FCF768FD0028F9D0462188F8001070
:103AB000D8F8040005280DDA295400210720FEF764
:103AC000FBFC43481430FEF7EDFCD8F80400401C22
:103AD000C8F80400012220212046FCF753FD0122F2
:103AE00002212046FCF74EFD002240212046FCF733
:103AF00049FD012280212046FCF744FD3E4639461F
:103B00002046FCF738FDD0B931462046FCF733FD9E
:103B10000028F9D0332188F80010D8F804000528CF
:103B20000DDA295400210720FEF7C6FC284814307E
:103B3000FEF7B8FCD8F80400401CC8F804004F4653
:103B400049462046FCF717FDD0B939462046FCF718
:103B500012FD0028F9D0362188F80010D8F80400AA
:103B600005280DDA295400210720FEF7A5FC184886
:103B70001430FEF797FCD8F80400401CC8F8040085
:103B800001212046FCF7F7FCD0B901212046FCF7C3
:103B9000F2FC0028F9D0392188F80010D8F8040088
:103BA00005280DDA295400210720FEF785FC084876
:103BB0001430FEF777FCD8F80400401CC8F8040065
:103BC00010212046FCF7D7FC70BB13E068010020F1
:103BD000180000204B65797061643A004E65773AB1
:103BE00000000000915F0100256400000D0000004E
:103BF0000A00000010212046FCF7BDFC0028E4D09C
:103C0000452088F80000D8F8041005290CDA68541B
:103C100000210720FEF750FCAF48FEF743FCD8F820
:103C20000400401CC8F80400012220212046FCF7B3
:103C3000A9FC012202212046FCF7A4FC012240211C
:103C40002046FCF79FFC002280212046FCF79AFCCE
:103C500031462046FCF78FFCD0B931462046FCF7B0
:103C60008AFC0028F9D0412088F80000D8F8041018
:103C7000A9B105290CDA685400210720FEF71CFCC5
:103C80009548FEF70FFCD8F80400401CC8F8040063
:103C90003E4639462046FCF76EFCB8B351E0D8F8F2
:103CA0000C006328F4D0FCF7C1FA8C4990FBF1F2C8
:103CB00001FB120142F20F700A18D8F80C004AF802
:103CC0002020401CAFF2E001C8F80C006846FFF766
:103CD00077FC01210420FEF7EFFB6846FEF7E2FBCC
:103CE0004FF47A73052269467D48FEF7D5FA6423BE
:103CF0000122AFF208117A48FEF7CEFA64230122BE
:103D0000AFF214117648FEF7C7FAC1E7FFE7314674
:103D10002046FCF730FC0028F9D0422088F800004B
:103D2000D8F8041005290CDA685400210720FEF7A2
:103D3000C3FB6948FEF7B6FBD8F80400401CC8F87E
:103D4000040001212046FCF716FCC8B901212046D9
:103D5000FCF711FC0028F9D0432188F80010D8F8AE
:103D6000040005280CDA295400210720FEF7A4FBE3
:103D70005948FEF797FBD8F80400401CC8F8040027
:103D800010212046FCF7F7FB10B1D8F8040019E029
:103D900010212046FCF7EFFB0028F9D0442188F8D9
:103DA0000010D8F8040005280FDA29540021072054
:103DB000FEF782FB4848FEF775FBD8F80400401C6C
:103DC000C8F804000528FFF619AD00210720FEF70A
:103DD00073FB44A0FEF766FBD946444600276423E4
:103DE00001223D493E48C8F804B0FEF755FA642365
:103DF0000122691C3A48FEF74FFA64230122A91CEC
:103E00003748FEF749FA64230122E91C3448FEF7DB
:103E100043FA64230122291D3148FEF73DFA642349
:103E20000122AFF238212E48FEF736FA6423012230
:103E3000AFF244212A48FEF72FFA002618E000BF0F
:103E40005AF82620AFF260216846FFF7B9FB002040
:103E500069462B5C0A5C9A4200D17F1C401C0528F5
:103E6000F7DB052F02D10120A06002960027761C07
:103E7000E0688642E4DBA06898B1C4F80890184C6A
:103E80000620403C2168486340F2DC50FCF77BFA96
:103E900021680B204863029A43F239004AF8220055
:103EA0000EE0124C012211462046FCF76BFB4FF44A
:103EB0007A70FCF768FA002201212046FCF762FBC9
:103EC00085F8009085F8019085F8029085F80390B8
:103ED00085F8049092E400002C000020915F01001E
:103EE000F0000020202020202020000000040048B6
:103EF000000000004000000014000000540000001A
:103F00000000000000000000010203040607080989
:103F1000A0860100400D0300801A060000350C0049
:103F200040420F0080841E0000093D0000127A000C
:103F30000024F40000366E010048E801006CDC0249
:103F40000000000001020304683F00080000002098
:103F500040000000E8350008A83F000840000020AD
:103F6000B8060000F8350008000000000000191B2A
:103F7000060C1B13001818060908090600000000AB
:103F80000000000000000000000000000000000031
:103F90000000000000000000000000000000000021
:083FA00000093D0000000000D3
:040000050800018D61
:00000001FF
